:020000040800F2
:1000000020080020B5010008FD2300085921000840
:10001000F9230008710200084D25000800000000C7
:10002000000000000000000000000000052400089F
:1000300081020008000000000124000809240008D3
:10004000CF010008CF010008CF010008CF01000850
:10005000CF010008CF010008CF010008CF01000840
:10006000CF010008CF010008CF010008CF01000830
:10007000CF010008CF01000875020008CF01000879
:10008000CF010008CF010008CF010008CF01000810
:10009000CF010008CF010008CF010008CF01000800
:1000A000CF01000811240008CF010008CF0100088B
:1000B000CF0100081D24000829240008CF010008F2
:1000C000CF010008CF010008CF010008CF010008D0
:1000D000CF01000841250008CF010008CF0100082A
:1000E000CF010008CF010008CF01000800F002F89E
:1000F00000F050F814A696E8000CB244B344DA4578
:1001000001D100F047F8BAE80F000FA696E83000DA
:10011000A5EB040504EB0607AAEB0704A7F101070A
:100120004FEA15154FEA3414A4F10104AC4201D38F
:1001300000F030F813F0010F18BFFB1A43F0010371
:1001400000F001F8DBE71847AC240000CC240000E5
:10015000103A24BF78C878C1FAD8520724BF30C8F3
:1001600030C144BF04680C60704700007047000055
:100170000023002400250026103A28BF78C1FBD8B0
:10018000520728BF30C148BF0B6070471FB51FBD65
:1001900010B510BD00F031F81146FFF7F7FF02F07F
:1001A000D7F900F04FF803B4FFF7F2FF03BC00F0FB
:1001B00057F800000948804709480047FEE7FEE776
:1001C000FEE7FEE7FEE7FEE7FEE7FEE7FEE7FEE707
:1001D00004480549054A064B704700000D240008F5
:1001E000ED0000082002002020080020200400204C
:1001F00020040020704770477047754600F02CF8C7
:10020000AE4605006946534620F00700854618B003
:1002100020B5FFF7DDFFBDE820404FF000064FF0AE
:1002200000074FF000084FF0000BAC46ACE8C009E7
:10023000ACE8C009ACE8C009ACE8C00921F007018E
:100240008D46704710B50446AFF300802046BDE8E8
:100250001040FFF7A8BF00000048704710000020C2
:1002600001491820ABBEFEE72600020070470000DF
:10027000FEE7000040F27000C2F2000000F088B813
:1002800070470000EFF3108072B600BFFEE7000079
:10029000014690F82100022816D10868D1E90FC361
:1002A000026822F00E020260026822F0010202607F
:1002B000012000FA03F2CCF8042081F8210000208C
:1002C000002281F82020704704208863012000224A
:1002D00081F820207047000090F82110022923D1D6
:1002E000026840F2040C1168C4F2020C21F00E0105
:1002F000116013682F21C4F202018A4223F0010326
:10030000136015DD3023C4F202039A421CD044234B
:10031000C4F202039A421BD05823C4F202039A4249
:100320001CD14FF4803321E0042181630120704708
:100330000823C4F202039A420ED01C23C4F2020323
:100340009A420BD1102311E04FF480730EE000BFEE
:100350004FF480530AE000BF012307E00CF168016D
:100360004FF080738A4208BF4FF480130121CCF80C
:10037000003080F82110416B0022002980F82020F5
:1003800004BF0020704780B58847002080BD000072
:1003900010B5D0E90FCE0168DCF800300A6823FA06
:1003A0000EF35C072AD512F0040427D00A689206DF
:1003B00003D40A6822F004020A602F22C4F2020267
:1003C000914240F20402C4F202025BDD3023C4F227
:1003D0000203994272D04423C4F20203994273D0BB
:1003E0005823C4F20203994240F07A804FF48023EC
:1003F0001360C16A002940F098806FE09C0727D500
:1004000012F0020424D00A68920606D40A6822F088
:100410000A020A60012280F821202F22C4F202027F
:10042000914240F20402C4F202023BDD3023C4F2E6
:100430000203994260D04423C4F2020399425FD080
:100440005823C4F20203994260D14FF4003365E0AF
:100450001B0743D512F0080208BF10BD0A6822F03E
:100460000E020A60012101FA0EF2CCF80420816329
:1004700080F82110016B0022002980F8202054D13F
:100480002CE000BF0823C4F20203994222D01C23AF
:10049000C4F20203994223D140231360C16A0029A8
:1004A00043D11BE00823C4F2020399422CD01C2341
:1004B000C4F20203994229D120232FE04FF4806334
:1004C0001360C16A89BB09E04FF480431360C16ABD
:1004D00059BB03E004231360C16A31BB10BD00BFE8
:1004E00002F168044FF08063A14208BF4FF480031B
:1004F0001360C16AC9B9F1E74FF400730EE000BFA1
:100500004FF400530AE000BF022307E002F1680441
:100510004FF00073A14208BF4FF400131360816ACB
:100520000022002980F82020D8D0BDE810400847DC
:10053000014600284FF0010008BF70472DE9F04345
:10054000D1F800C04FF6F873CBF6FD734CF6CD42F0
:100550006344CCF6CC42A3FB02236FF0030202EA11
:1005600093020023C4F2020301F10C08C1E90F3227
:100570000222D1E9019E98E8F00181F82120DCF8FF
:10058000002043F6F0739A4342EA090242EA0E025F
:1005900022432A4332433A4342EA0802CCF800207D
:1005A00000228A6381F8210081F820200020BDE824
:1005B000F04370472DE9F04F82B00E68002E00F036
:1005C000FD8041F20042C4F20102042340F2004ED9
:1005D000904208BF03234FF6FF7CC4F2010E009344
:1005E00000240123C1F2100C4FF0000A4FF0000963
:1005F0004BE000BF41F20002C4F20102009F9042B2
:1006000008BF022704F00C030F229A402BEA0202D3
:1006100007FA03F34FEA9A051A4346F825204E6875
:1006200040F20C45F202DEF8082054BF22EA08022C
:1006300042EA0802C4F20105CEF808202A68B30293
:1006400054BF22EA080242EA08022A60B303DEF835
:10065000042054BF22EA080242EA0802F303CEF85B
:100660000420DEF800204FF0010354BF22EA080204
:1006700042EA0802CEF800200E680AF1010A36FAB2
:100680000AF204F1040400F0998003FA0AFB16EA66
:100690000B08F1D04E68664512DC122E56D8DFE802
:1006A00006F0350B4D49555555555555555555552C
:1006B00055555545510000BFD1F80C9046E000BF9C
:1006C0004FF6FF72C1F2210296420FDC0022C1F206
:1006D000110296421AD00022C1F21202964215D09F
:1006E0000022C1F22102964210D02FE00022C1F276
:1006F000220296420AD00022C1F23102964205D06F
:100700000022C1F23202964220D100BF8A684AB16B
:10071000012A14BFC0F814B0C0F810B04FF0080997
:1007200014E000BF4FF0040910E000BFCA6802F1F6
:1007300004090BE04FF0000908E000BFCA6802F1AD
:10074000080903E0CA6802F10C0900BF0246264608
:10075000B8F5807F24BF0432203E17680F25B540CE
:1007600027EA050509FA06F635431560CA79D20667
:100770007FF582AF41F21803C4F202031A68AEF5A6
:100780007E7642F001021A601A6802F001020192BC
:10079000019A2AF0030256F802B040F60002C4F2B1
:1007A0000102904208D040F60042C4F20102904299
:1007B0007FF420AF012725E7002723E702B0BDE83B
:1007C000F08F000040F21C20C2F200000068704769
:1007D00040F2000040F21C21C2F20000C2F200010F
:1007E00000780A68104408607047000080B542F243
:1007F0000000C4F20200016841F010010160032012
:1008000000F0BCF80F2000F005F800F057F80020C9
:1008100080BD0000B0B586B041F21801C4F20201FB
:100820000A68054642F400620A60096801A801F4FA
:10083000006101910199694600F08EF900F0C2F95A
:100840004DF68361C4F21B31A0FB01014FF0FF3074
:1008500000EB914140F2B40042F60042C2F20000C7
:10086000C4F2010240F2E7330024C0E90021C0E9EC
:1008700002430461846100F0FDFB08B106B0B0BD25
:1008800040F2B400C2F2000000F0A6FC0028F5D14E
:10089000192000F035F80F2D0CD819202946002218
:1008A00000F040F840F204010020C2F200010D60A7
:1008B00006B0B0BD012006B0B0BD000082B041F26C
:1008C0001800C4F202000168022241F00101016037
:1008D000016801F0010101910199416841F08051E5
:1008E0004160406800F08050009000980420C4F2FD
:1008F0000100016862F31A61016002B070470000F4
:10090000002848BF704700F01F01012202FA01F1E0
:100910001C2202EAD0004EF20012CEF200028150F8
:100920007047000010B54EF60C5CCEF2000CDCF8FF
:100930000030C3F3022E8EF00704042C28BF0424D9
:10094000BEF103034FF0FF3E0EFA04F438BF00235C
:10095000A14399400EFA03F39A43114300F00F02AA
:1009600000F160430901043A03F56443624400283E
:1009700048BF02F10C03197010BD00004EF60C5177
:10098000CEF200010A684FF6FF031A4060F30A2214
:1009900042F0806040F0FD7008607047002804BF9E
:1009A000012070472DE9F04381B042F20008C4F203
:1009B00002080446D8F800000D4600F007008842FF
:1009C0000CD2D8F8000020F007002843C8F8000037
:1009D000D8F8000000F00700A8426CD1206841F26E
:1009E00004098107C4F2020917D5410705D5D9F8D2
:1009F000001041F4E061C9F80010010705D5D9F8ED
:100A0000001041F46051C9F80010D9F80010A26834
:100A100021F0F0011143C9F80010C00742D1D8F805
:100A2000000000F00700A8420CD9D8F8000020F020
:100A300007002843C8F80000D8F8000000F00700BD
:100A4000A84238D12068410707D5D9F80010E268DC
:100A500021F4E0611143C9F80010000708D5D9F866
:100A60000000216920F4605040EAC100C9F800008C
:100A7000D9F8002002F00C00082841F20020C0F252
:100A80007A004DD142F2E453C2F38341C0F6000331
:100A9000595CD20338D440F60010C0F23D00484300
:100AA0003EE000BF606859F8041C022808D0012805
:100AB00026D1890306D4012001B0BDE8F08300BF30
:100AC0008901F8D5D9F8001021F003010843C9F8CD
:100AD0000000FFF777FE064641F28837D9F800009C
:100AE000616800F00C00B0EB810F98D0FFF76AFE50
:100AF000801BB842F2D9032001B0BDE8F08300BFEB
:100B00008907D8D5DEE700BFD9F8002042F2E253CA
:100B1000C2F34042C0F600039A5C4843B0FBF2F0D7
:100B2000D9F8001042F2CA52C1F30311C0F6000214
:100B3000515C40F2080220FA01F140F20400C2F2D6
:100B400000000068C2F200021160FFF763FE00209F
:100B500001B0BDE8F08300000F22026041F2040200
:100B6000C4F20202136803F003034360136803F046
:100B7000F0038360136803F4E063C36012684FF40A
:100B8000E06303EAD202026142F20000C4F2020012
:100B9000006800F0070008607047000040F208009D
:100BA00041F20401C2F20000C4F2020100680968C7
:100BB00042F2DA52C1F30221C0F60002515CC84091
:100BC0007047000040F2080041F20401C2F2000048
:100BD000C4F202010068096842F2DA52C1F3C2218C
:100BE000C0F60002515CC84070470000002804BFF6
:100BF000012070472DE9F04182B00446007841F2AF
:100C00000006C007C4F202060CD0706800F00C00A9
:100C1000042840F081803068800303D56068002894
:100C200000F04681207880071BD5706810F00C0F0B
:100C300009D0706800F00C00082840F087807068C8
:100C4000C00300F183803068800703D52069012844
:100C500040F02E813068616920F0F80040EAC10060
:100C600030602078000713D4207840072CD4E56941
:100C7000002D00F01881706800F00C00082840F08A
:100C8000A780012D40F00481012002B0BDE8F08171
:100C9000A069002800F084800020C4F242200121D5
:100CA000C0F88014FFF78EFD054600BF706A80070C
:100CB00000F1B280FFF786FD401B0228F6D9032021
:100CC00002B0BDE8F08100BFF0695FEAC00808D457
:100CD000F06940F08050F061F06900F080500090C1
:100CE000009847F20007C4F200073868C00549D4ED
:100CF000386840F480703860FFF764FD054600BF37
:100D00003868C0053ED4FFF75DFD401B6428F7D965
:100D1000032002B0BDE8F081706800F00C000828E4
:100D200003D17068C0033FF576AF61683068002971
:100D300000F00C81B1F5A02F00F00081B1F5803FEB
:100D400040F01A8140F480301CE100BF2069002887
:100D500040F20000C4F2422000F0888001210160CE
:100D6000FFF730FD054600BF306880073FF572AFE2
:100D7000FFF728FD401B0228F6D9032002B0BDE88A
:100D8000F08100BFE168306A002900F09D800529EC
:100D900000F09280012940F0AF8040F00100B1E006
:100DA0000020C4F242200021C0F88014FFF70AFDA1
:100DB000054600BF706A80077FF556AFFFF702FD5A
:100DC000401B0228F6D9032002B0BDE8F08100BF25
:100DD0000027C4F2422700203866FFF7F3FC022DFB
:100DE00005460DD13068800140F1DE80FFF7EAFC56
:100DF000401B02284FF00300F4D902B0BDE8F08197
:100E0000306880014FD5FFF7DDFC401B02284FF012
:100E10000300F5D9F1E700BF40F20800C2F200007C
:100E2000006844F6D351C1F26201A0FB0101480AF7
:100E3000019000BF00BF0198411E002801913FF4BE
:100E400013AF00BF0198411E002801913FF40CAF81
:100E500000BF0198411E002801913FF405AF00BF7B
:100E60000198411E00280191E4D1FDE600210160B6
:100E7000FFF7A8FC054600BF306880077FF5F1AE9C
:100E8000FFF7A0FC401B02284FF00300F4D9B4E7A1
:100E90007068216A00F480328A4209D1616A00F4E4
:100EA0007010884204D1002002B0BDE8F08100BF7C
:100EB000012002B0BDE8F08140F004003062306AE9
:100EC00040F001001EE000BF20F001003062306AF7
:100ED00020F004003062FFF775FC054641F28837C8
:100EE000306A800720D5FFF76DFC401BB8424FF0F9
:100EF0000300F5D981E700BF20F001003062306ABD
:100F000020F004003062FFF75DFC054641F28837AF
:100F1000306A800708D4FFF755FC401BB842F7D968
:100F2000032002B0BDE8F081B8F1000F3FF59FAE9D
:100F3000F06920F08050F06199E600BF40F4802015
:100F40003060306840F480301CE000BF20F4803016
:100F50003060306820F480203060FFF733FC0546B5
:100F6000306880037FF55EAEFFF72CFC401B6428E1
:100F70004FF00300F4D940E720F48030306030684F
:100F800020F480203060FFF71DFC054630688003A8
:100F90003FF548AEFFF716FC401B6428F6D9032046
:100FA00002B0BDE8F08100BF206AB0F5803F05D1F6
:100FB0007168A26821F40031114371607168626A3E
:100FC00021F4741111430843706001203866FFF763
:100FD000F9FB0446306880013FF565AFFFF7F2FB8F
:100FE000001B02284FF00300F4D906E77047000009
:100FF0007047000090F83C20012A4FF0020236D0E2
:1010000010B580F83D200268D2F804E0D2F808C09C
:101010000C682EF07003234340F2FF74C4F2000406
:10102000A24253600ADCB2F1804F13D040F2004379
:10103000C4F200039A420DD011E000BF42F6004313
:10104000C4F201039A4205D040F60003C4F2000343
:101050009A4204D149682CF0800319439160012120
:10106000002280F83D1080F83C20BDE8104010467A
:1010700070470000002804BF0120704710B590F8A9
:101080003D1031B9002180F83C10044600F070F8A2
:101090002046022180F83D10016840F2FF740B6881
:1010A000C4F2000442F6004CA142C4F2010C15DC6B
:1010B000B1F1804F1AD040F20042C4F200029142D6
:1010C00014D0A14218DCB1F1804F1DD040F2004293
:1010D000C4F20002914217D01AE000BF614505D06A
:1010E00040F60002C4F200029142EAD1826823F085
:1010F00070031343A142E6DD614505D040F60002CE
:10110000C4F20002914203D1026923F440731343F5
:10111000846923F08002D0F804E0C368224361456B
:101120000A60CB62C1F828E002D14269CCF83020D5
:1011300001224A610B69DB0703D00B6923F001032D
:101140000B6180F8462080F83E2080F83F2080F830
:10115000402080F8412080F8422080F8432080F829
:10116000442080F8452080F83D20002010BD00007C
:1011700080B582B0006840F60001C4F200018842E8
:1011800012D0B0F1804F0CD141F21C00C4F2020029
:10119000016841F001010160006800F00100019068
:1011A000019802B080BD00BF41F21C00C4F20200F1
:1011B0000168002241F0040101600068002100F094
:1011C0000400009000981E20FFF7ACFB1E2002B028
:1011D000BDE88040FFF794BB90F83D1001291CBF8B
:1011E00001207047022180F83D10006840F2FF7234
:1011F000C168C4F20002904241F00101C16009DC03
:10120000B0F1804F12D040F20041C4F20001884298
:101210000CD012E042F60041C4F20101884205D030
:1012200040F60001C4F20001884206D1816801F055
:101230000701062904BF00207047016841F0010141
:10124000016000207047000090F83C20012A4FF018
:1012500002026CD080B580F83D20D0F800C04FF677
:101260007772DCF8083023EA0202CCF808200B6819
:101270004F2B29DC1F2B45DD202B46D0302B44D0B3
:10128000402B40F0AF80D1F804E0C968DCF8203092
:10129000DCF8202022F00102CCF82020DCF8182015
:1012A00022F0F00242EA011123F00A0242EA0E02A1
:1012B000CCF81810CCF82020DCF8081041F04701D9
:1012C00021F0300128E000BF6F2B33DDB3F5005F64
:1012D00074D0B3F5805F21D0702B40F08380D1E9CA
:1012E00001E3C968DCF8082043EA0E0322F47F42D8
:1012F00043EA01211143CCF80810DCF8081041F052
:10130000770109E00BB1102B6CD1DCF8081021F04B
:101310007001194341F00701CCF8081000220121A7
:1013200080F83D10002180F83C10BDE88040104658
:10133000704700BF502B21D0602B53D1D1F804E06F
:10134000C968DCF82030DCF8202022F01002CCF84C
:101350002020DCF8182022F4704242EA013123F008
:10136000A00242EA0E12CCF81810CCF82020DCF8CB
:10137000081041F0670121F01001CDE7D1F804E039
:10138000C968DCF82030DCF8202022F00102CCF81B
:101390002020DCF8182022F0F00242EA011123F0AC
:1013A0000A0242EA0E02CCF81810CCF82020DCF831
:1013B000081041F0570121F02001ADE7D1E901E328
:1013C000C968DCF8082043EA0E0322F47F4243EAAE
:1013D00001211143CCF80810DCF8081041F48041D9
:1013E0009AE700BF01229AE7002804BF0120704756
:1013F0002DE9F04F81B090F83D2042B9002280F8ED
:101400003C2004460D4600F09DF829462046022265
:1014100080F83D20026844F20705936842F6004CCC
:10142000AB43936040F2FF731468C4F200039A4226
:10143000C4F2010C14DCB2F1804F19D040F2004527
:10144000C4F20005AA4213D09A4217DCB2F1804FD1
:101450001CD040F20043C4F200039A4216D01AE0B6
:10146000624505D040F60005C4F20005AA42EBD162
:10147000856824F070042C439A42E7DD624505D06C
:1014800040F60003C4F200039A4204D1036924F435
:10149000407543EA050424F080038469D0F804E031
:1014A000C568234362451360D562C2F828E002D1C3
:1014B0004369CCF830304FF0010EC2F814E01569E2
:1014C000ED0703D0156925F001051561956894694C
:1014D000D2F820C0D1E90038D1E9027B43EA050AFD
:1014E0008D694FF6FF7924EA090447EA05254FF68E
:1014F000FC47BD43D1E9077644EA0B040B692C4352
:1015000044EA07242CF02207496944EA031347EA16
:10151000080743EA063347EA0111C2F808A09361BD
:10152000116280F846E080F83EE080F83FE080F805
:1015300042E080F843E080F83DE0002001B0BDE8E3
:10154000F08F000080B586B040F200410068C4F220
:10155000000100228842CDE904220392029201D0C8
:1015600006B080BD41F21800C4F20200436843F0A7
:1015700002034360436803F002030193019B036885
:1015800043F004030360006800F004000190019838
:10159000C020CDE9020201F5823002A90492FFF7D2
:1015A00009F81D2001210022FFF7BCF91D20FFF7DB
:1015B000A7F906B080BD00007047000070B5044672
:1015C0000068C5680669B10716D515F0020113D089
:1015D0006FF002010161012121778069800703D04A
:1015E0002046FFF7E9FF05E0204600F08FF820468F
:1015F00000F010FA00202077700719D515F00400CC
:1016000016D020686FF00401016102212177806902
:1016100010F4407F04D02046FFF7CEFF06E000BF65
:10162000204600F073F8204600F0F4F900202077FF
:10163000300717D515F0080014D020686FF00801A6
:10164000016104212177C069800703D02046FFF79C
:10165000B3FF05E0204600F059F8204600F0DAF923
:1016600000202077F00619D515F0100016D020685C
:101670006FF01001016108212177C06910F4407FEB
:1016800004D02046FFF798FF06E000BF204600F098
:101690003DF8204600F0BEF900202077F00718BF83
:1016A00015F0010002D1300609D412E020686FF075
:1016B00001010161204600F0AFF9300609D515F0AF
:1016C000800006D020686FF0800101612046FFF79E
:1016D0008DFC700609D515F0400006D020686FF02B
:1016E00040010161204600F0A1F9B00658BF70BD6D
:1016F00015F0200008D021686FF0200220460A6112
:10170000BDE87040FFF774BC70BD0000704700007A
:1017100090F83C30012B04BF022070474FEAB20220
:10172000032A00F2F1802DE9F043DFE802F003A57F
:101730003B7500BF036842F600461D6A1A6AC4F290
:10174000010622F001021A621A465C6852F818CFAC
:10175000B3428E68D1F800E025F0020545EA06059F
:101760000CD1CE68D1E9057824F4407425F00C053D
:1017700026F004063C43354344EA08042CF0730782
:1017800047EA0E075C609F614F6809695F631D62ED
:101790009F6947F008079F619F6927F004079F61D1
:1017A000A6E000BF036842F600461D6A1A6AC4F24A
:1017B000010622F480721A621A46D3F804C052F865
:1017C0001CEFB3428E680C6825F4007545EA0625C7
:1017D0000FD1CE68D1E90598360240F2FF4725F4D3
:1017E0004065BE4335432CF4405748EA090647EAB2
:1017F000061C2EF073072743C3F804C0DF614F684F
:101800000969DF631D62DF6947F00807DF61DF698F
:1018100027F00407DF616BE0036842F60047D3F866
:1018200020C01A6AC4F2010722F480521A621A46D2
:101830005C6852F81C5FD1F800E08E68BB4204D1AE
:101840004F6924F4804444EA87142CF4005747EA93
:10185000063725F4E64646EA0E265C60DE614E68F1
:1018600009691E641F62DF6947F40067DF61DF6991
:1018700027F48067DF613AE0036842F600461D6A9C
:101880001A6AC4F2010622F010021A621A46D3F84C
:1018900004C052F8184FB3428E68D1F800E025F02A
:1018A000200545EA06150FD1CE68D1E905986FF0FD
:1018B000400725F0C00507EA061635432CF44067BB
:1018C00048EA090647EA860C24F4E64444EA0E276F
:1018D000C3F804C09F614F6809699F631D629F69D7
:1018E00047F400679F619F6927F480679F61090241
:1018F0001368194311600021BDE8F043002280F80D
:101900003C200846704700BF0121002280F83C209F
:1019100008467047002804BF0120704710B590F8B2
:101920003D1031B9002180F83C10044600F070F8F9
:101930002046022180F83D10016840F2FF740B68D8
:10194000C4F2000442F6004CA142C4F2010C15DCC2
:10195000B1F1804F1AD040F20042C4F2000291422D
:1019600014D0A14218DCB1F1804F1DD040F20042EA
:10197000C4F20002914217D01AE000BF614505D0C1
:1019800040F60002C4F200029142EAD1826823F0DC
:1019900070031343A142E6DD614505D040F6000225
:1019A000C4F20002914203D1026923F4407313434D
:1019B000846923F08002D0F804E0C36822436145C3
:1019C0000A60CB62C1F828E002D14269CCF830202D
:1019D00001224A610B69DB0703D00B6923F0010385
:1019E0000B6180F8462080F83E2080F83F2080F888
:1019F000402080F8412080F8422080F8432080F881
:101A0000442080F8452080F83D20002010BD0000D3
:101A10007047000070470000006842F60041C4F2C1
:101A20000101884218BF7047FEF7D2BE7047000020
:101A30007047000070470000B0B582B001680A68C6
:101A4000CC684B6902F02F05202D04F0200505D14C
:101A500025B102B0BDE8B04000F0F2BC5FEA027C04
:101A60001EBF03F0010E04F4907313EB0E0341D17B
:101A7000036BD50618D5012B16D114F0100313D023
:101A8000002201920A6801924A680192019A49690A
:101A900049064BD4818DC28DC38D002B18BF914256
:101AA00040F0F48102B0B0BD13062DD514F08003D0
:101AB0002AD090F84120212AF4D18268B2F5805FC3
:101AC00003D10269002A00F06782026A531C036294
:101AD00012784A60C28C013A1304C284E2D1C86809
:101AE00020F08000C860C86840F04000C86002B0C4
:101AF000B0BD00BFD30718BF14F4807340F0D0808E
:101B0000530700F1D380D8E05206CBD514F0400241
:101B1000C8D0CA6822F04002CA60202180F8411073
:101B200002B0BDE8B04000F015BB00BFC16B0A6851
:101B3000526893B2002BB5D0858DAB42B2D2C2852C
:101B40008969202900F0A180016851E8031F02681B
:101B500021F4807142E80313DBB1016851E8031FEF
:101B6000026821F4807142E8031393B1016851E8DF
:101B7000031F026821F4807142E803134BB101682E
:101B800051E8031F026821F4807142E80313002B1F
:101B9000DAD1016851E8051F026821F0010142E82D
:101BA0000513C3B3016851E8051F026821F0010164
:101BB00042E805137BB3016851E8051F026821F074
:101BC000010142E8051333B3016851E8051F0268BB
:101BD00021F0010142E80513002BDAD11BE000BF20
:101BE000016851E8051F026821F0400142E8051331
:101BF000DBB1016851E8051F026821F0400142E8AD
:101C0000051393B1016851E8051F026821F04001F6
:101C100042E805134BB1016851E8051F026821F045
:101C2000400142E80513002BDAD1202180F8421050
:101C300000210163016851E8031F026821F01001CF
:101C400042E80313DBB1016851E8031F026821F089
:101C5000100142E8031393B1016851E8031F0268C1
:101C600021F0100142E803134BB1016851E8031F52
:101C7000026821F0100142E80313002BDAD1C16B96
:101C800004460846FEF704FB204602214163818D8D
:101C9000C28D891A89B202B0BDE8B040FFF7C8BE54
:101CA000436C43F001034364530706D5BEF1000FB4
:101CB00003D0436C43F002034364930706D5BEF19F
:101CC000000F03D0436C43F004034364BCF1000FE6
:101CD00006D55EEA050303D0436C43F00803436472
:101CE000436C002B3FF4DEAE920605D525B10446C9
:101CF00000F0A6FB216820464969426C01F04001D2
:101D000002F00802891800F0B98000BF016851E8AC
:101D1000031F026821F4907142E80313BBB301680A
:101D200051E8031F026821F4907142E8031373B372
:101D3000016851E8031F026821F4907142E803131F
:101D40002BB3016851E8031F026821F4907142E847
:101D50000313002BDAD11AE0016851E8051F02686D
:101D600021F0010142E80513DBB1016851E8051FCC
:101D7000026821F0010142E8051393B1016851E8BE
:101D8000051F026821F0010142E805134BB101680B
:101D900051E8051F026821F0010142E80513002BFC
:101DA000DAD1016B012924D1016851E8031F0268CF
:101DB00021F0100142E80313DBB1016851E8031F71
:101DC000026821F0100142E8031393B1016851E861
:101DD000031F026821F0100142E803134BB10168B0
:101DE00051E8031F026821F0100142E80313002BA1
:101DF000DAD1202180F8421000210163016849698D
:101E0000490640F1C380016851E8051F026821F0CE
:101E1000400142E80513DBB1016851E8051F026883
:101E200021F0400142E8051393B1016851E8051F14
:101E3000026821F0400142E805134BB1016851E806
:101E4000051F026821F0400142E80513002BDAD19A
:101E5000C16B002900F09A8042F23542C0F60002C0
:101E6000044608464A63FEF737FA00283FF41AAEE4
:101E7000E06B416B02B0BDE8B04008470446FFF795
:101E8000D9FD0020606402B0B0BD00BF891A00BF58
:101E9000026852E8032F036822F4907243E8032596
:101EA000BDB3026852E8032F036822F4907243E83E
:101EB000032575B3026852E8032F036822F4907279
:101EC00043E803252DB3026852E8032F036822F488
:101ED000907243E80325002DDAD11AE0026852E837
:101EE000052F036822F0010243E80525DDB10268F1
:101EF00052E8052F036822F0010243E8052595B159
:101F0000026852E8052F036822F0010243E8052524
:101F10004DB1026852E8052F036822F0010243E840
:101F20000525002DDAD1202280F84220002202630C
:101F3000026852E8032F036822F0100243E80325E9
:101F4000DDB1026852E8032F036822F0100243E873
:101F5000032595B1026852E8032F036822F01002AE
:101F600043E803254DB1026852E8032F036822F0CD
:101F7000100243E80325002DDAD1022289B2426320
:101F800002B0BDE8B040FFF753BD00BF02B0BDE8EE
:101F9000B040FFF74FBD00BF026A32F8023B6FF35B
:101FA0005F234B60026295E5002804BF0120704763
:101FB00010B5044690F8410028B9002084F840008C
:101FC000204600F063F8242084F841002068D4E91A
:101FD0000212C36823F40053C360036923F440531F
:101FE0001A430261D4E904231143C268194341F240
:101FF0000C639A431143C1604169A26921F44071A5
:10200000114343F60002C4F201029042416103D041
:10201000FEF7C4FD02E000BFFEF7D4FDD4E90023C3
:10202000192148439900B0FBF1F048F21F5CC5F25A
:10203000EB1CA0FB0C314FF69C734909C0F6FF73F3
:1020400001FB0300322303EB0010A0FB0C03F02084
:1020500000EA531000EB0110C3F3431108449060F1
:102060001069202120F490401061506920F02A006E
:102070005061D06840F40050D0600020606484F863
:10208000411084F84210606310BD0000F0B585B0C7
:1020900040F600050446C4F20105006805F540510C
:1020A000002788420497CDE90277019702D005B056
:1020B000F0BD00BF41F21800C4F20200016801AE99
:1020C00041F480410160016801F480410091009970
:1020D000016841F0040101600068314600F004002D
:1020E000009000984FF400700190022002900320AD
:1020F00004902846FEF75EFA4FF48060CDE90107B0
:10210000284631460397FEF755FA40F27005442001
:10211000C2F20005C4F202001021802285E883008B
:102120002846C5E90327C5E90577EF61FEF700FA00
:10213000002818BFFEF7A6F8252000210022A5637D
:102140006C62FEF7EFFB2520FEF7DAFB05B0F0BD71
:102150007047000070470000FEE7000080B582B0C5
:1021600041F21400C4F202000168002241F00101B2
:1021700001600068002100F00100019001980E202C
:10218000FEF7D0FB0E2002B0BDE88040FEF7B8BBE2
:1021900083B041F21800C4F20200016841F010015E
:1021A0000160016801F0100102910299016841F09B
:1021B00020010160016801F020010191019901688D
:1021C00041F004010160006800F0040000900098F4
:1021D00003B0704710B594B040F2FC000021C2F289
:1021E000000064240E91CDE90C110991CDE907118D
:1021F000CDE90511CDE90311CDE901114FF0804280
:102200004723C0E9021401618021C0E900238161F4
:10221000FEF730FF002818BFFEF734F84FF4805067
:102220000B9040F2FC00C2F200000BA9FFF70CF883
:10223000002818BFFEF726F840F2FC00C2F20000AA
:10224000FFF768FB002818BFFEF71CF840F2FC00FF
:102250000024C2F2000008A9CDE90844FEF7CAFE36
:10226000002818BFFEF70EF86020CDE901040394A2
:10227000059440F2FC04C2F2000401A920460022A9
:10228000FFF746FA002818BFFDF7FCFF2168002081
:10229000B1F1804FCDE912001190109002D014B02E
:1022A00010BD00BF41F21800C4F20200016841F005
:1022B00004010160006810A900F004000F900F985D
:1022C0000120109002201190139040F60000C4F2FB
:1022D0000100FEF76FF914B010BD000080B58CB09E
:1022E00040F2441040F200420021C2F20000C4F269
:1022F000000244F62063C0E900210122CDE900116B
:10230000C0E9021301618161CDE90321CDE9052115
:10231000CDE90711CDE909210B9103A9FFF764F875
:10232000002818BFFDF7AEFF40F24410C2F20000D3
:102330006946FEF75FFE002818BFFDF7A3FF0CB04B
:1023400080BD000080B586B040F28C100021C2F242
:10235000000040F600024FF0630C0591CDE9031137
:10236000CDE90011C4F2000241F61F43C0E9021C8E
:1023700001618021C0E900238161FEF77BFE002816
:1023800018BFFDF77FFF4FF48050029040F28C1091
:10239000C2F2000002A9FEF757FF002818BFFDF7A0
:1023A00071FF40F28C10C2F200006946FEF722FE77
:1023B000002818BFFDF766FF06B080BD80B540F26B
:1023C000D41043F60001C2F20000C4F20101002360
:1023D0004FF00C0C4FF4E13280E80E00C0E90333FB
:1023E000C0E905C3C361FFF7DFFD002808BF80BD5A
:1023F000BDE88040FDF746BFFEE70000FEE70000B5
:1024000070470000704700007047000070470000F0
:1024100040F2B400C2F20000FFF7D0B840F244101E
:10242000C2F20000FFF7CAB840F28C10C2F20000FE
:10243000FFF7C4B8406A0021C185C184FFF7FABA2A
:1024400081B090F84210222921D183680246B3F569
:10245000805F09D152F8281F52F8183C002B63D036
:1024600003685B680AE000BF52F8281F13B90369CC
:10247000002BF5D003685B6803F07F030B701168D5
:1024800001311160C18D01390A04C18502D001B04A
:10249000704700BF0168CA6822F02002CA60CA689B
:1024A00022F48072CA604A6922F001024A61202146
:1024B00080F8421000214163026B012A3CD1016384
:1024C000016851E8031F026821F0100142E803137C
:1024D000DBB1016851E8031F026821F0100142E8F6
:1024E000031393B1016851E8031F026821F0100142
:1024F00042E803134BB1016851E8031F026821F061
:10250000100142E80313002BDAD101680A68D206F1
:1025100006D5002200920A6800924968009100994D
:10252000818D01B0FFF784BA026852686FF35F22B1
:1025300021F8022B8162A5E701B0FFF709BE000078
:1025400040F2D410C2F20000FFF776BAFEE70000B6
:1025500090B0FEF74BF900240120CDE90B44CDE902
:10256000094406900A904FF4E0104FF480310225A0
:102570000F9006A8CDE90714CDE90D51FEF736FB03
:1025800020B1EFF3108072B6FEE700BF0F20CDE957
:1025900001054FF48060CDE9040401A802210394F1
:1025A000FEF7FCF920B1EFF3108072B6FEE700BF32
:1025B000FFF7EEFDFFF7D2FDFFF70CFEFFF78EFEF3
:1025C000FFF7FCFEFFF7BEFEFEE700000000000084
:1025D00000000102030406070809000000000102D0
:1025E0000304010202030405060708090A0B0C0D87
:1025F0000E0F101018260008000000201000000028
:1026000050010008282600081000002010080000D3
:102610007001000800000000010000001000000030
:0826200000127A000000000026
:04000005080000ED02
:00000001FF
